:100000000C942A000C9436000C9434000C943400A8
:100010000C9434000C9434000C9434000C94340090
:100020000C9434000C9434000C9434000C94340080
:100030000C9434000C9434000C9434000C94340070
:100040000C9434000C9434000C9434000C94340060
:100050000C94340011241FBECFE5D8E0DEBFCDBF25
:100060000E945A000C9466000C9400001F920F929C
:100070000FB60F9211242F938F939F93979A2FEF80
:1000800089E698E1215080409040E1F700C00000EF
:1000900097982FEF89E698E1215080409040E1F752
:1000A00000C000009F918F912F910F900FBE0F9075
:1000B0001F9018958F9A8A988FB780688FBF8BB7DB
:1000C00080648BBF85B7816085BFFFCFF894FFCF79
:00000001FF
